S00E000073745F6964732E7372656390
S113000012C0AFC070C02AC029C028C027C026C0F3
S113001025C024C023C023C021C020C01FC01EC0CF
S11300201DC01CC01BC011241FBECFE5D4E0DEBF21
S1130030CDBF12E0A0E6B0E0E6ECF7E002C0059028
S11300400D92A034B107D9F722E0A0E4B2E001C0D8
S11300501D92A83FB207E1F731D2B3C3D1CF1F92AB
S11300600F920FB60F9211242F933F938F939F9368
S1130070EF93FF938CB18D3081F08A3071F0209131
S1130080440230914502F901E25BFD4F80832F5F0A
S11300903F4F309345022093440281E090E09093D7
S11300A0430280934202FF91EF919F918F913F9180
S11300B02F910F900FBE0F901F90189580914C02B6
S11300C090914D02892B39F481E090E090934D0298
S11300D080934C0248D281E090E03CD262E080E020
S11300E090E062D308951F920F920FB60F921124DD
S11300F02F933F934F935F936F937F938F939F932C
S1130100AF93BF93EF93FF93D9DFFF91EF91BF912B
S1130110AF919F918F917F916F915F914F913F919B
S11301202F910F900FBE0F901F90189580914C0245
S113013090914D02892B39F481E090E090934D0227
S113014080934C0210D280E090E004D2BDD158D20A
S1130150109241021092400263E080E090E024D3C8
S113016008951F920F920FB60F9211242F933F936D
S11301704F935F936F937F938F939F93AF93BF93AB
S1130180EF93FF93D3DFFF91EF91BF91AF919F91D5
S11301908F917F916F915F914F913F912F910F902C
S11301A00FBE0F901F90189510924B0210924A02A6
S11301B080914E02882371F04EE452E0FA011192CC
S11301C09F01241B350B80818111F9CF30934B02A1
S11301D020934A0210924502109244021092430264
S11301E01092420208958091420290914302019735
S11301F0C9F569E272E08EE492E0B4D2892B91F100
S11302006FE272E08EE492E0ADD2892B91F0ABD133
S113021081E090E09FD162E080E090E0C5D210924E
S113022041021092400260E871E084EE92E013D241
S113023018C062E372E08EE492E094D2892B89F0D4
S113024092D180E090E086D163E080E090E0ACD28F
S113025010924102109240026CE571E084EE92E04B
S1130260FAD1A2DF089581E090E090934102809357
S1130270400228D181E090E099D18EE591E026D129
S11302808091400290914102019709F048C0B8D191
S11302908AE090E01BD182E090E088D18EE591E085
S11302A015D180914002909141020197C1F5A8D1E6
S11302B07BDF81E090E00AD166D18AE090E006D14C
S11302C06CE071E084EE92E0C6D16EDF8CE291E0E6
S11302D0FDD08091400290914102019701F553D1E4
S11302E08AE090E0F3D06BEB70E084EE92E0B3D15F
S11302F05BDF8CE291E0EAD0809140029091410270
S1130300019769F440D18AE090E0E0D060E670E0C3
S113031084EE92E0A0D148DF8AE090E0D7D044DFB9
S1130320089511D1892B11F09EDF3EDF80E090E02B
S113033033D2823081F51092450210924402109219
S1130340430210924202109241021092400285E050
S113035090E0BCD010924D0210924C02D8D0892B60
S113036019F0C7D0892B41F52FEF84E39CE021508D
S113037080409040E1F700C00000C9D0892B19F0FB
S1130380B8D0892BC9F48091400290914102892B05
S113039099F469DF0895833079F41092450210923C
S11303A04402109243021092420285E090E08ED003
S11303B010924D0210924C0208951092490210922C
S11303C048021092470210924602EEDE92D1ECDE11
S11303D081E090E07BD0A4D18091420290914302CD
S11303E0019709F04BC080914E02882391F120912E
S11303F04802309149024091460250914702EFE48D
S1130400F2E0823219F42F5F3F4F18C023303105D8
S113041039F4DA01AC51BD4F8C934F5F5F4F0EC07E
S11304202430310559F484E090E09093490280939C
S1130430480250934702409346020BC081918111B8
S1130440E0CF3093490220934802509347024093EF
S11304504602E4EEF2E001900020E9F73197E45E11
S1130460F240EA30F10511F03D9759F49DDE8AE03F
S113047090E02CD0D9D081E090E0089580E090E025
S1130480089580E090E00895CF93DF9349D054D04D
S113049070D08EE190E01AD081E090E05BD08DDFE7
S11304A0EC0180E090E056D02197B1F77DDE63E067
S11304B080E090E079D1DF91CF910895E5DF31DFDD
S11304C092DEFDCFC19A0895C1980895009781F0F6
S11304D020E030E04FEF50E762E041505040604090
S11304E0E1F700C000002F5F3F4F2817390791F74D
S11304F0089593B383B393FD07C082958F7091E001
S11305008927817090E0089580E090E0089583B396
S113051082958695877091E08927817090E008958F
S1130520B99AA09A81B3806F81BB85B38E6385BB72
S113053082B3806982BB08958BB7806C8BBF85E0E2
S113054085BF7894089583B3869591E08927817057
S113055090E008958130910511F4969A0895892BBD
S113056009F496980895A89A81E090E0AFDFA898DE
S1130570089583E389B910BC80B5866880BD8AB1CB
S113058088698AB9089580912502882361F0E6E29A
S1130590F2E08CB98FE19EE40197F1F700C000000E
S11305A081918111F6CF8AE08CB90895CF93DF93BE
S11305B08130910571F48091FD018823C9F0CEEF5B
S11305C0D1E08CB981E090E081DF89918111F9CF8C
S11305D00FC0029769F480911102882349F0C2E1A7
S11305E0D2E08CB981E090E071DF89918111F9CF7B
S11305F088E290E06BDF8AE08CB9DF91CF910895B7
S1130600CF93DF938091F301882349F0C4EFD1E0C5
S11306108CB981E090E05ADF89918111F9CF8AE0A9
S11306208CB9DF91CF910895CF93DF938091C1016D
S1130630882349F0C2ECD1E08CB981E090E046DF38
S113064089918111F9CF84E190E040DF8AE08CB98F
S1130650DF91CF9108950F931F93CF93DF938B0175
S1130660BC0183EA91E073D0C3EAD1E0FE010190BA
S11306700020E9F7319782E29DE0A0E08083918336
S1130680A28381E090E022DF8881882349F0C4EAD4
S1130690D1E08CB981E090E019DF89918111F9CF23
S11306A084E190E013DF8AE08CB981E090E00EDF12
S11306B0F8018081882349F0E80121968CB981E012
S11306C090E004DF89918111F9CF8AE18CB984E14A
S11306D090E0FCDE8AE08CB9E6E3F2E0A3EAB1E064
S11306E001900D928A95E1F7DF91CF911F910F91BF
S11306F00895CF93DF938091E401882349F0C5EEF8
S1130700D1E08CB981E090E0E1DE89918111F9CFEB
S113071084E190E0DBDE8AE08CB9DF91CF9108952B
S1130720CF93DF938091CB01882349F0CCECD1E0C7
S11307308CB981E090E0CADE89918111F9CF84E11E
S113074090E0C4DE8AE08CB9DF91CF910895FB017B
S1130750DC010D900020E9F7119701900D92002023
S1130760E1F70895FB0151915523A9F0BF01DC0184
S11307704D9145174111E1F759F4CD010190002045
S113078049F04D9140154111C9F3FB014111EFCFDF
S113079081E090E001970895E199FECF9FBB8EBB65
S11307A0E09A99278DB30895262FE199FECF9FBB38
S11307B08EBB2DBB0FB6F894E29AE19A0FBE019658
S10907C00895F894FFCF38
S11307C64B696E646C7920737769746368206F660D
S11307D6662074686520616C61726D206F6E636556
S11307E620796F7520726561636820616E64206389
S11307F66865636B20626F7820616E6420636F6E38
S11308066E656374696F6E73206265666F726520C8
S1130816726573746F72696E672E00486F70652017
S11308265369722F4D6164616D20796F7520746F01
S11308366F6B206D6561737572657320616E6420DC
S11308466172726976656420617420796F757220AD
S113085673686F77726F6F6D20746F20636865635A
S11308666B20696E7472756465722E0042657761D9
S11308767265205369722F4D6164616D2120426552
S113088620616C65727420736F6D656F6E6520658B
S11308966E746572696E6720796F75722073686FFE
S11308A677726F6F6D2077697468206372696D69FA
S11308B66E616C20696E74656E742E00596F757264
S11308C62073656375726974792073797374656DC1
S11308D6206973207475726E6564204F66662E00F7
S11308E6596F7572207365637572697479207379AB
S11308F67374656D206973207475726E6564204F18
S11309066E2E0041542B434D47533D2200000000F8
S113091600000000000000000000000000000000CD
S11309260041542B434D47463D310041542B43501F
S113093642463D224F574E4552223B0D00000000D1
S11309460000000041542B435042533D22534D2294
S11309560000004154480D000000000000415444CA
S11309663E224F574E4552223B0D00000000000028
S1130976004154443E224F574E455232223B0D000D
S1130986000000000041540D004F574E4552004FE1
S11309964E004F46460041542B434D47533D2200DB
S9030000FC
