:1000000012C023C15DC12AC029C028C027C026C094
:1000100025C024C023C0EDC021C020C01FC01EC009
:100020001DC01CC01BC011241FBECFE5D4E0DEBF25
:10003000CDBF12E0A0E6B0E0E0E3F7E002C005903B
:100040000D92A231B107D9F722E0A2E1B2E001C0DE
:100050001D92AA3CB207E1F76DD168C3D1CFE0E2AF
:10006000F2E0CF01805292402081222311F01192C0
:10007000F8CF90931D0280931C02109217021092E9
:1000800016021092150210921402089510921B028B
:1000900010921A021092190210921802E0DFDDD2BB
:1000A000DEDF81E090E0EFD1ECD2809114029091FC
:1000B00015020197B9F580911A0290911B022091C7
:1000C000180230911902E0E2F2E04191442389F0F4
:1000D000423211F40196F9CF8330910539F4D901F8
:1000E000AA54BD4F4C932F5F3F4FEFCF8430910503
:1000F00061F790931B0280931A02309319022093A8
:100100001802E6EBF2E001900020E9F73197E65B98
:10011000F240EA30F10541F081E090E03D9731F0A6
:1001200080E0089580E001C081E090E0089581E0E2
:1001300090E09093130280931202C4D105D28EE511
:1001400091E0A1D18091120290911302019709F0E0
:100150004FC022D28AE090E096D10AD28EE591E09B
:1001600092D18091120290911302019709F040C040
:1001700013D210921702109216028AE090E083D1F7
:100180001CD2109217021092160281E090E07BD1EF
:100190006CE071E086EB92E024D21092170210928C
:1001A00016028CE291E06FD18091120290911302BD
:1001B0000197F1F46BEB70E086EB92E012D21092B3
:1001C0001702109216028CE291E05DD1809112022A
:1001D00090911302019761F460E670E086EB92E083
:1001E00000D210921702109216028AE090E04BD1D2
:1001F00036CF1F920F920FB60F9211242F938F9329
:100200009F93EF93FF932CB12D3079F02A3069F052
:100210008091160290911702FC01E05EFD4F208351
:100220000196909317028093160281E090E09093DC
:10023000150280931402FF91EF919F918F912F915E
:100240000F900FBE0F901F9018951F920F920FB630
:100250000F9211242F933F934F935F936F937F934C
:100260008F939F93AF93BF93EF93FF9380911E0261
:1002700090911F02892B39F481E090E090931F0246
:1002800080931E0251D180E090E042D185D110923E
:1002900013021092120263E080E090E03AD2FF91E4
:1002A000EF91BF91AF919F918F917F916F915F91EE
:1002B0004F913F912F910F900FBE0F901F90189567
:1002C0001F920F920FB60F9211242F933F934F93CB
:1002D0005F936F937F938F939F93AF93BF93EF93AE
:1002E000FF9380911E0290911F02892B39F481E0C7
:1002F00090E090931F0280931E0216D181E090E05F
:1003000007D1109213021092120262E080E090E096
:1003100000D2FF91EF91BF91AF919F918F917F910B
:100320006F915F914F913F912F910F900FBE0F9062
:100330001F901895D3D0DED0FDD08EE190E0A3D0F1
:1003400085E090E0A0D081E090E0E2D09FDEEC017B
:1003500080E090E0DDD0219799F781DE63E080E0D6
:1003600090E0D7D1CED0892B11F0E1DE78DE80E0AD
:1003700090E0C7D1823071F51092170210921602E8
:10038000109215021092140285E090E07CD0109239
:100390001F0210921E0299D0892B69F42FEF84E37B
:1003A0009CE0215080409040E1F700C000008DD0DB
:1003B000892B41F004C079D0892B81F31CC075D002
:1003C000892BC9F48091120290911302892B99F420
:1003D000AEDE11C0833079F410921702109216022B
:1003E000109215021092140285E090E04CD0109209
:1003F0001F0210921E028091140290911502019723
:1004000009F0B0CF68EF71E080E292E060D1892B13
:1004100009F4A8CF6EEF71E080E292E058D1892B09
:1004200079F082D081E090E073D062E080E090E0EB
:1004300070D1109213021092120260E871E015C0A0
:1004400061E072E080E292E042D1892B89F06CD0C9
:1004500080E090E05DD063E080E090E05AD11092BF
:100460001302109212026CE571E086EB92E0B9D0B3
:10047000F6DD78CF8130910511F4C19A0895892B6A
:1004800009F4C198089520E030E02817390761F099
:100490004FEF50E762E0415050406040E1F700C04C
:1004A00000002F5F3F4FF1CF089593B383B393FDC7
:1004B00006C082958F7091E08927817001C080E02D
:1004C00090E0089581E090E0D5CF83B38295869542
:1004D000877091E08927817090E00895B99AA09A79
:1004E00081B3806F81BB85B38E6385BB82B3806926
:1004F00082BB08958BB7806C8BBF85E085BF7894F5
:10050000089583B3869591E08927817090E00895DE
:100510008130910511F4969A0895892B21F49698CB
:1005200080E090E0A7CF0895A89A81E090E0ABDF4B
:10053000A898089583E389B910BC80B5866880BD0A
:100540008AB188698AB90895CF93DF93CBEDD1E062
:100550008991882329F08CB981E090E094DFF8CF6D
:1005600088E290E090DF8AE08CB9DF91CF91089526
:10057000CF93DF93C9EED1E08991882329F08CB91C
:1005800081E090E080DFF8CF88E290E07CDF8AE0D5
:100590008CB9DF91CF910895CF93DF93C6EDD1E071
:1005A0008991882329F08CB981E090E06CDFF8CF45
:1005B0008AE08CB9DF91CF910895CF93DF93CDEA94
:1005C000D1E08991882329F08CB981E090E05BDF4C
:1005D000F8CF84E190E057DF8AE08CB9DF91CF91CA
:1005E00008950F931F93CF93DF938B01BC0183EA90
:1005F00091E05BD065E072E083EA91E056D081E063
:1006000090E041DFC3EAD1E08991882329F08CB9D9
:1006100081E090E038DFF8CF84E190E034DF8AE0D9
:100620008CB981E090E02FDFE8018991882329F0DF
:100630008CB981E090E027DFF8CF8AE18CB984E1C2
:1006400090E021DF8AE08CB968E072E083EA91E013
:10065000DF91CF911F910F9133C0CF93DF93C9ECFE
:10066000D1E08991882329F08CB981E090E00BDFFB
:10067000F8CF84E190E007DF8AE08CB9DF91CF9179
:100680000895CF93DF93C7EBD1E08991882329F0B8
:100690008CB981E090E0F7DEF8CF84E190E0F3DE02
:1006A0008AE08CB9DF91CF910895FB01DC010D90B8
:1006B0000020E9F7119701900D920020E1F70895CD
:1006C000FB01DC0101900D920020E1F70895FB0190
:1006D00051915523A9F0BF01DC014D9145174111FE
:1006E000E1F759F4CD010190002049F04D914015FA
:1006F0004111C9F3FB014111EFCF81E090E0019777
:100700000895E199FECF9FBB8EBBE09A99278DB3E8
:100710000895262FE199FECF9FBB8EBB2DBB0FB650
:10072000F894E29AE19A0FBE01960895F894FFCFEB
:100730004B696E646C7920737769746368206F66A7
:10074000662074686520616C61726D206F6E6365F0
:1007500020796F7520726561636820616E64206323
:100760006865636B20626F7820616E6420636F6ED2
:100770006E656374696F6E73206265666F72652063
:10078000726573746F72696E672E00486F706520B2
:100790005369722F4D6164616D20796F7520746F9C
:1007A0006F6B206D6561737572657320616E642077
:1007B0006172726976656420617420796F75722048
:1007C00073686F77726F6F6D20746F2063686563F5
:1007D0006B20696E7472756465722E004265776174
:1007E0007265205369722F4D6164616D21204265ED
:1007F00020616C65727420736F6D656F6E65206526
:100800006E746572696E6720796F75722073686F98
:1008100077726F6F6D2077697468206372696D6994
:100820006E616C20696E74656E742E00596F7572FE
:100830002073656375726974792073797374656D5B
:10084000206973207475726E6564204F66662E0091
:10085000596F757220736563757269747920737945
:100860007374656D206973207475726E6564204FB2
:100870006E2E0041542B434D47533D220041542BD3
:10088000434D47463D310041542B435042463D22A3
:100890004F574E4552223B0D0041542B435042537B
:1008A0003D22534D22004154480D004154443E2204
:1008B0004F574E4552223B0D004154443E224F5764
:1008C0004E455232223B0D004F574E4552004F4E7F
:1008D000004F464600220D0041542B434D47533DE7
:0208E0002200F4
:00000001FF
