S00E000073745F6964732E7372656390
S113000012C0FCC03CC12AC029C028C027C026C0D9
S113001025C024C023C0C6C021C020C01FC01EC02C
S11300201DC01CC01BC011241FBECFE5D4E0DEBF21
S1130030CDBF12E0A0E6B0E0E2E1F7E002C0059037
S11300400D92A630B107D9F722E0A6E0B2E001C0D4
S11300501D92A23CB207E1F750D159C3D1CF1092FF
S113006013021092120210921102109210021092B6
S11300700F0210920E0210920D0210920C02E5D2A1
S113008010920F0210920E0210920D0210920C02A6
S113009081E090E0F6D1EDD280910C0290910D02B6
S11300A00197B9F5809112029091130220911002E8
S11300B030911102E8E1F2E04191442389F04232A7
S11300C011F40196F9CF8330910539F4D901A25581
S11300D0BD4F4C932F5F3F4FEFCF8430910561F7B5
S11300E09093130280931202309311022093100212
S11300F0EEEAF2E001900020E9F73197EE5AF2407F
S1130100EA30F10541F081E090E03D9731F080E084
S1130110089580E001C081E090E00895D2D110D22A
S11301208EE591E0AED134D281E090E0AAD11CD228
S11301308EE591E0A6D12CD210920F0210920E02FD
S113014081E090E09ED169E071E08EEA92E031D2E4
S113015010920F0210920E028CE291E092D168EBA1
S113016070E08EEA92E025D210920F0210920E02F5
S11301708CE291E086D160E670E08EEA92E019D2DA
S11301808AE090E07ED181E090E090930B0280932E
S11301900A0210920F0210920E0210920D02109297
S11301A00C0208951F920F920FB60F9211242F93F1
S11301B08F939F93EF93FF932CB12D3079F02A30D6
S11301C069F080910E0290910F02FC01E85EFD4FF0
S11301D02083019690930F0280930E0281E090E0B9
S11301E090930D0280930C02FF91EF919F918F9158
S11301F02F910F900FBE0F901F9018951F920F9282
S11302000FB60F9211242F933F934F935F936F93E5
S11302107F938F939F93AF93BF93EF93FF938091BB
S1130220160290911702892B39F481E090E09093A3
S113023017028093160274D11092090210920802D8
S113024081E090E0909307028093060280E090E0C2
S11302505BD19ED163E080E090E04CD2FF91EF91BE
S1130260BF91AF919F918F917F916F915F914F91CA
S11302703F912F910F900FBE0F901F9018951F92D2
S11302800F920FB60F9211242F933F934F935F93C6
S11302906F937F938F939F93AF93BF93EF93FF934A
S11302A08091160290911702892B39F481E090E035
S11302B0909317028093160233D181E090E09093DB
S11302C009028093080290930702809306021CD1CE
S11302D062E080E090E00ED2FF91EF91BF91AF9188
S11302E09F918F917F916F915F914F913F912F914A
S11302F00F900FBE0F901F901895EFD0FAD016D123
S11303008EE190E0BED081E090E0FED0A8DEEC016A
S113031080E090E0F9D02197B1F710920F0210928B
S11303200E0210920D0210920C0280E090E0FC018B
S1130330E85EFD4F1082019686399105C1F79093CE
S1130340150280931402DCD0892B09F0E7DE80E0EB
S113035090E0C8D1823071F510920F0210920E0213
S113036010920D0210920C0285E090E08AD0109257
S1130370170210921602A8D0019769F42FEF84E3B4
S11303809CE0215080409040E1F700C000009CD0E8
S1130390892B41F004C087D0892B81F320C083D0FE
S11303A0892BE9F480910A0290910B02892BB9F40C
S11303B0B5DE15C0833099F410920F0210920E022C
S11303C010920D0210920C0285E090E05AD0109227
S11303D017021092160210920B0210920A028091D8
S11303E00C0290910D02019709F0ADCF65EF71E019
S11303F088E192E05DD1892B09F4A5CF6BEF71E020
S113040088E192E055D1892B59F08AD081E090E0BF
S11304107BD062E080E090E06DD16DE771E011C0C7
S11304206EEF71E088E192E043D1892B69F078D0D6
S113043080E090E069D063E080E090E05BD169E522
S113044071E08EEA92E0B5D0E8E1F2E080818823A1
S113045011F01192FBCF1092150210921402109217
S11304600F0210920E0210920D0210920C026BCF2A
S11304708130910511F4C19A0895892B09F4C1982A
S1130480089520E030E02817390761F04FEF50E776
S113049062E0415050406040E1F700C000002F5F2F
S11304A03F4FF1CF089583B393B383B393FD06C055
S11304B082958F7091E08927817001C080E090E07F
S11304C0089581E090E0D4CF83B3829586958770B8
S11304D091E08927817090E00895B99AA09A81B338
S11304E0806F81BB85B38E6385BB82B3806982BB19
S11304F008958BB7806C8BBF85E085BF7894089591
S113050083B3827090E008958130910511F4969A36
S11305100895892B21F4969880E090E0A9CF08955E
S1130520A89A81E090E0ADDFA898089583E389B9A3
S113053010BC80B5866880BD8AB188698AB908957F
S1130540CF93DF93C8EDD1E08991882329F08CB94A
S113055081E090E096DFF8CF88E290E092DF8AE0D5
S11305608CB9DF91CF910895CF93DF93C6EED1E09C
S11305708991882329F08CB981E090E082DFF8CF5B
S113058088E290E07EDF8AE08CB9DF91CF91089514
S1130590CF93DF93C3EDD1E08991882329F08CB9FF
S11305A081E090E06EDFF8CF8AE08CB9DF91CF91E3
S11305B00895EF92FF920F931F93CF93DF937C01E3
S11305C08B01CAEAD1E09991992329F09CB981E081
S11305D090E057DFF8CF84E190E053DF8AE08CB9F4
S11305E0B70180EA91E059D062E072E080EA91E0DC
S11305F054D081E090E045DFC0EAD1E089918823BE
S113060029F08CB981E090E03CDFF8CF84E190E000
S113061038DF8AE08CB981E090E033DFE80189912A
S1130620882329F08CB981E090E02BDFF8CF8AE1B0
S11306308CB984E190E025DF8AE08CB9DF91CF9119
S11306401F910F91FF90EF900895CF93DF93C6EC25
S1130650D1E08991882329F08CB981E090E011DF01
S1130660F8CF84E190E00DDF8AE08CB9DF91CF917F
S11306700895CF93DF93C4EBD1E08991882329F0C7
S11306808CB981E090E0FDDEF8CF84E190E0F9DE02
S11306908AE08CB9DF91CF910895FB01DC010D90C4
S11306A00020E9F7119701900D920020E1F70895D9
S11306B0FB0151915523A9F0BF01DC014D91451770
S11306C04111E1F759F4CD010190002049F04D9119
S11306D040154111C9F3FB014111EFCF81E090E0D6
S11306E001970895E199FECF9FBB8EBBE09A9927AD
S11306F08DB30895262FE199FECF9FBB8EBB2DBBF2
S11307000FB6F894E29AE19A0FBE01960895F89410
S1050710FFCF15
S11307124B696E646C7920737769746368206F66C1
S1130722662074686520616C61726D206F6E63650A
S113073220796F7520726561636820616E6420633D
S11307426865636B20626F782C20636F6E6E6563DD
S113075274696F6E73206265666F72652072657369
S1130762746F72696E672E00486F706520536972E8
S11307722F4D6164616D20796F7520746F6F6B20EA
S11307826D6561737572657320616E642061727246
S11307926976656420617420796F75722073686F5D
S11307A277726F6F6D20746F20636865636B206965
S11307B26E7472756465722E00426577617265208B
S11307C25369722F4D6164616D2120426520616C11
S11307D265727420736F6D656F6E6520656E7465E6
S11307E272696E6720796F75722073686F77726FA2
S11307F26F6D2077697468206372696D696E616CCC
S113080220696E74656E742E00596F75722073655B
S11308126375726974792073797374656D20697371
S1130822207475726E6564204F66662E00596F756A
S11308327220736563757269747920737973746550
S11308426D206973207475726E6564204F6E2E007C
S113085241542B434D47533D220041542B434D47B2
S1130862463D310041542B435042463D224F574EA0
S11308724552223B0D0041542B435042533D2253D7
S11308824D22004154480D004154443E224F574EDC
S11308924552223B0D004154443E224F574E45528D
S11308A232223B0D004F574E4552004F4E004F46E9
S10908B24600220D0000C7
S9030000FC
