S00E000073745F6964732E7372656390
S113000012C0FEC0C0C02AC029C028C027C026C054
S113001025C024C023C023C021C020C01FC01EC0CF
S11300201DC01CC01BC011241FBECFE5D4E0DEBF21
S1130030CDBF12E0A0E6B0E0E6E2F7E002C0059032
S11300400D92A034B107D9F722E0A0E4B2E001C0D8
S11300501D92A83FB207E1F714D263C3D1CF1F9218
S11300600F920FB60F9211242F938F939F93EF93B8
S1130070FF932CB12D3079F02A3069F0809144023D
S113008090914502FC01E25BFD4F20830196909321
S113009045028093440281E090E090934302809370
S11300A04202FF91EF919F918F912F910F900FBE7C
S11300B00F901F901895EEE4F2E0CF018E54924019
S11300C02081222311F01192F8CF90934B02809358
S11300D04A02109245021092440210924302109276
S11300E04202089580914202909143020197B1F532
S11300F065E272E08EE492E0E5D2892B79F16BE25D
S113010072E08EE492E0DED2892B79F00DD281E0A8
S113011090E001D262E080E090E0F6D210924102D9
S11301201092400260E871E015C06EE272E08EE465
S113013092E0C8D2892B89F0F7D180E090E0EBD12E
S113014063E080E090E0E0D210924102109240021D
S11301506CE571E084EE92E03FD2ADCF08958091DA
S11301604C0290914D02892B39F481E090E09093F8
S11301704D0280934C02D8D181E090E0CCD162E072
S113018080E090E0C1C21F920F920FB60F9211242B
S11301902F933F934F935F936F937F938F939F938B
S11301A0AF93BF93EF93FF93DADFFF91EF91BF918A
S11301B0AF919F918F917F916F915F914F913F91FB
S11301C02F910F900FBE0F901F90189580914C02A5
S11301D090914D02892B39F481E090E090934D0287
S11301E080934C02A1D180E090E095D150D1CFD141
S11301F0109241021092400263E080E090E084C2D9
S11302001F920F920FB60F9211242F933F934F9387
S11302105F936F937F938F939F93AF93BF93EF936A
S1130220FF93D4DFFF91EF91BF91AF919F918F9195
S11302307F916F915F914F913F912F910F900FBEDE
S11302400F901F9018951092490210924802109234
S11302504702109246022FDFFBD12DDF81E090E0B0
S113026018D10AD280914202909143020197B9F5C4
S113027080914802909149022091460230914702B0
S1130280EEE4F2E04191442389F0423211F4019604
S1130290F9CF8330910539F4D901AC51BD4F4C935A
S11302A02F5F3F4FEFCF8430910561F79093490260
S11302B0809348023093470220934602E4EEF2E032
S11302C001900020E9F73197E45EF240EA30F1054D
S11302D041F081E090E03D9731F080E0089580E0C6
S11302E001C081E090E00895CF93DF93FAD005D167
S11302F021D18EE190E0CDD081E090E00CD1A3DF5C
S1130300EC0180E090E007D12197B1F7D4DE63E0FF
S113031080E090E0DF91CF91F7C181E090E090938D
S1130320410280934002B1D081E090E00DD18EE58E
S113033091E0AFD08091400290914102019709F081
S113034051C025D18AE090E0A4D082E090E0FCD0B6
S11303508EE591E09ED080914002909141020197F8
S113036009F040C014D110924502109244028AE070
S113037090E08FD01DD1109245021092440281E08A
S113038090E087D06CE071E084EE92E025D1109289
S11303904502109244028CE291E07BD080914002AD
S11303A0909141020197F1F46BEB70E084EE92E0DE
S11303B013D110924502109244028CE291E069D06C
S11303C08091400290914102019761F460E670E0EF
S11303D084EE92E001D110924502109244028AE028
S11303E090E057D068CE90D0892B11F096DF63DE71
S11303F080E090E081D1823091F510924502109214
S1130400440210924302109242021092410210924E
S1130410400285E090E03DD010924D0210924C02D3
S113042057D0892B69F42FEF84E39CE0215080405E
S11304309040E1F700C000004BD0892B29F00BC09D
S11304403AD0892B81F30895809140029091410222
S1130450892BB1F462CF2FD0892BB1F30895833067
S113046079F41092450210924402109243021092C1
S1130470420285E090E00DD010924D0210924C02A1
S1130480089532DFB0DF2EDEFDCFC19A0895C19802
S1130490089520E030E02817390761F04FEF50E766
S11304A062E0415050406040E1F700C000002F5F1F
S11304B03F4FF1CF089593B383B393FD06C0829564
S11304C08F7091E08927817001C080E090E00895E9
S11304D083B382958695877091E08927817090E037
S11304E00895B99AA09A81B3806F81BB85B38E6356
S11304F085BB82B3806982BB08958BB7806C8BBF48
S113050085E085BF7894089583B3869591E0892723
S1130510817090E008958130910511F4969A0895C0
S1130520892B09F496980895A89A81E090E0B1DFA8
S1130530A898089583E389B910BC80B5866880BD06
S11305408AB188698AB90895CF93DF938130910580
S113055091F4CDEFD1E08991882329F08CB981E021
S113056090E097DFF8CF88E290E093DF8AE08CB9DF
S1130570DF91CF9108950297B1F7C1E1D2E089915B
S1130580882389F38CB981E090E083DFF8CFCF939F
S1130590DF93C3EFD1E08991882329F08CB981E0FE
S11305A090E077DFF8CF8AE08CB9DF91CF9108959E
S11305B0CF93DF93C1ECD1E08991882329F08CB9E2
S11305C081E090E066DFF8CF84E190E062DF8AE0CA
S11305D08CB9DF91CF9108950F931F93CF93DF933D
S11305E08B01BC0183EA91E05BD062E372E083EAB1
S11305F091E056D081E090E04CDFC3EAD1E08991EC
S1130600882329F08CB981E090E043DFF8CF84E1BE
S113061090E03FDF8AE08CB981E090E03ADFE801C6
S11306208991882329F08CB981E090E032DFF8CFFA
S11306308AE18CB984E190E02CDF8AE08CB965E32F
S113064072E083EA91E0DF91CF911F910F9133C063
S1130650CF93DF93C4EED1E08991882329F08CB93C
S113066081E090E016DFF8CF84E190E012DF8AE0C9
S11306708CB9DF91CF910895CF93DF93CBECD1E088
S11306808991882329F08CB981E090E002DFF8CFCA
S113069084E190E0FEDE8AE08CB9DF91CF91089589
S11306A0FB01DC010D900020E9F7119701900D92F8
S11306B00020E1F70895FB01DC0101900D92002078
S11306C0E1F70895FB0151915523A9F0BF01DC0125
S11306D04D9145174111E1F759F4CD0101900020E6
S11306E049F04D9140154111C9F3FB014111EFCF80
S11306F081E090E001970895E199FECF9FBB8EBB06
S1130700E09A99278DB30895262FE199FECF9FBBD8
S11307108EBB2DBB0FB6F894E29AE19A0FBE0196F8
S10907200895F894FFCFD8
S11307264B696E646C7920737769746368206F66AD
S1130736662074686520616C61726D206F6E6365F6
S113074620796F7520726561636820616E64206329
S11307566865636B20626F7820616E6420636F6ED8
S11307666E656374696F6E73206265666F72652069
S1130776726573746F72696E672E00486F706520B8
S11307865369722F4D6164616D20796F7520746FA2
S11307966F6B206D6561737572657320616E64207D
S11307A66172726976656420617420796F7572204E
S11307B673686F77726F6F6D20746F2063686563FB
S11307C66B20696E7472756465722E00426577617A
S11307D67265205369722F4D6164616D21204265F3
S11307E620616C65727420736F6D656F6E6520652C
S11307F66E746572696E6720796F75722073686F9F
S113080677726F6F6D2077697468206372696D699A
S11308166E616C20696E74656E742E00596F757204
S11308262073656375726974792073797374656D61
S1130836206973207475726E6564204F66662E0097
S1130846596F75722073656375726974792073794B
S11308567374656D206973207475726E6564204FB8
S11308666E2E0041542B434D47533D220000000099
S1130876000000000000000000000000000000006E
S11308860041542B434D47463D310041542B4350C0
S113089642463D224F574E4552223B0D0000000072
S11308A60000000041542B435042533D22534D2235
S11308B60000004154480D0000000000004154446B
S11308C63E224F574E4552223B0D000000000000C9
S11308D6004154443E224F574E455232223B0D00AE
S11308E600000000004F574E4552004F4E004F4641
S11308F64600220D0041542B434D47533D22000030
S9030000FC
