:1000000012C0AAC06CC02AC029C028C027C026C000
:1000100025C024C023C023C021C020C01FC01EC0D3
:100020001DC01CC01BC011241FBECFE5D4E0DEBF25
:10003000CDBF12E0A0E6B0E0ECE4F7E002C005902E
:100040000D92AA33B107D9F722E0AAE3B2E001C0CA
:100050001D92A23FB207E1F70ED276C3D1CF1F9215
:100060000F920FB60F9211242F938F939F93EF93BC
:10007000FF932CB12D3079F02A3069F08091520233
:1000800090915302FC01E45AFD4F20830196909316
:1000900053028093520281E090E09093510280934A
:1000A0005002FF91EF919F918F912F910F900FBE72
:1000B0000F901F90189580915A0290915B02892BA6
:1000C00039F481E090E090935B0280935A0227D24A
:1000D00081E090E01BD262E080E090E028C31F92B4
:1000E0000F920FB60F9211242F933F934F935F936C
:1000F0006F937F938F939F93AF93BF93EF93FF93F0
:10010000DADFFF91EF91BF91AF919F918F917F9136
:100110006F915F914F913F912F910F900FBE0F9074
:100120001F90189580915A0290915B02892B39F4A7
:1001300081E090E090935B0280935A02F0D180E0DE
:1001400090E0E4D19FD13AD210923B0210923A0251
:1001500063E080E090E0EBC21F920F920FB60F9227
:1001600011242F933F934F935F936F937F938F93BC
:100170009F93AF93BF93EF93FF93D4DFFF91EF91E2
:10018000BF91AF919F918F917F916F915F914F91AF
:100190003F912F910F900FBE0F901F901895ECE597
:1001A000F2E0CF018C5592402081222311F0119270
:1001B000F8CF9093590280935802109253021092F4
:1001C00052021092510210925002089580915002F2
:1001D000909151020197B1F560E272E08CE592E0F6
:1001E00084D2892B79F166E272E08CE592E07DD2CF
:1001F000892B79F094D181E090E088D162E080E0B1
:1002000090E095D210923B0210923A0260E871E0C1
:1002100015C069E272E08CE592E067D2892B89F023
:100220007ED180E090E072D163E080E090E07FD208
:1002300010923B0210923A026CE571E08CE392E07E
:10024000D1D1ADCF089581E090E090933B028093AF
:100250003A0216D18AE090E017D181E090E086D191
:100260008EE591E011D180913A0290913B02019785
:1002700009F048C0A3D18AE090E006D182E090E086
:1002800075D18EE591E000D180913A0290913B02C8
:100290000197C1F593D183DF81E090E0F5D052D191
:1002A0008AE090E0F1D06CE071E08CE392E09AD1CA
:1002B00076DF8CE291E0E8D080913A0290913B02A7
:1002C000019701F53FD18AE090E0DED06BEB70E062
:1002D0008CE392E087D163DF8CE291E0D5D080910E
:1002E0003A0290913B02019769F42CD18AE090E0A8
:1002F000CBD060E670E08CE392E074D150DF8AE00E
:1003000090E0C2D04CCFFBD0892B11F09CDF47DFAF
:1003100080E090E004D2823091F510925302109266
:100320005202109251021092500210923B0210920F
:100330003A0285E090E0A8D010925B0210925A0237
:10034000C2D0892B69F42FEF84E39CE021508040D8
:100350009040E1F700C00000B6D0892B29F00BC017
:10036000A5D0892B81F3089580913A0290913B02A8
:10037000892BB1F468CF9AD0892BB1F308958330DB
:1003800079F410925302109252021092510210927C
:10039000500285E090E078D010925B0210925A02F1
:1003A0000895109257021092560210925502109220
:1003B0005402F5DE5AD1F3DE81E090E065D06CD1D5
:1003C00080915002909151020197B9F580915602A7
:1003D000909157022091540230915502ECE5F2E0E1
:1003E0004191442389F0423211F40196F9CF8330D0
:1003F000910539F4D901A45CBD4F4C932F5F3F4F59
:10040000EFCF8430910561F79093570280935602A5
:100410003093550220935402ECE3F2E00190002067
:10042000E9F73197EC53F240EA30F10541F081E011
:1004300090E03D9731F080E0089580E001C081E0D8
:1004400090E00895CF93DF9347D052D06ED08EE1E5
:1004500090E01AD081E090E059D0A3DFEC0180E079
:1004600090E054D02197B1F79ADE63E080E090E00D
:10047000DF91CF915CC1E6DF46DFA8DE90DEFCCFE6
:10048000C19A0895C198089520E030E028173907EF
:1004900061F04FEF50E762E0415050406040E1F7BB
:1004A00000C000002F5F3F4FF1CF089593B383B397
:1004B00093FD06C082958F7091E08927817001C0FD
:1004C00080E090E0089583B382958695877091E0EF
:1004D0008927817090E00895B99AA09A81B3806FBE
:1004E00081BB85B38E6385BB82B3806982BB08956F
:1004F0008BB7806C8BBF85E085BF7894089583B3FC
:10050000869591E08927817090E00895813091056A
:1005100011F4969A0895892B09F496980895A89A4B
:1005200081E090E0B1DFA898089583E389B910BC19
:1005300080B5866880BD8AB188698AB908955D9B57
:10054000FECF0895CF93DF93CBE1D2E0888188235B
:1005500039F0F5DF89918CB981E090E095DFF6CF35
:10056000EEDF8AE08CB9DF91CF910895CF93DF93CE
:1005700081309105A9F4C3EFD1E08881882339F057
:10058000DEDF89918CB981E090E07EDFF6CF88E2F2
:1005900090E07ADFD4DF8AE08CB9DF91CF910895C3
:1005A0000297A9F7C7E0D2E08881882381F3C7DFEB
:1005B00089918CB981E090E067DFF6CFCF93DF932C
:1005C000C9EED1E08881882339F0B9DF89918CB9EF
:1005D00081E090E059DFF6CFB2DF8AE08CB9DF919D
:1005E000CF9108950F931F93CF93DF938B01BC019D
:1005F00083EA91E068D06DE272E083EA91E063D033
:1006000081E090E041DFC3EAD1E08881882339F0BE
:1006100096DF89918CB981E090E036DFF6CF84E1F6
:1006200090E032DF8CDF8AE08CB981E090E02CDF53
:10063000E8018881882339F082DF89918CB981E0D3
:1006400090E022DFF6CF7BDF8AE18CB984E190E095
:100650001BDF75DF8AE08CB960E372E083EA91E02A
:10066000DF91CF911F910F9139C0CF93DF93CAEDE6
:10067000D1E08881882339F062DF89918CB981E0EB
:1006800090E002DFF6CF84E190E0FEDE58DF8AE002
:100690008CB9DF91CF910895CF93DF93C1ECD1E076
:1006A0008881882339F04BDF89918CB981E090E013
:1006B000EBDEF6CF84E190E0E7DE41DF8AE08CB943
:1006C000DF91CF910895FB01DC010D900020E9F747
:1006D000119701900D920020E1F70895FB01DC01D4
:1006E00001900D920020E1F70895FB0151915523EF
:1006F000A9F0BF01DC014D9145174111E1F759F413
:10070000CD010190002049F04D9140154111C9F3F0
:10071000FB014111EFCF81E090E001970895E1994D
:10072000FECF9FBB8EBBE09A99278DB30895262FED
:10073000E199FECF9FBB8EBB2DBB0FB6F894E29A1A
:0C074000E19A0FBE01960895F894FFCFD7
:10074C004B696E646C7920737769746368206F668B
:10075C00662074686520616C61726D206F6E6365D4
:10076C0020796F7520726561636820616E64206307
:10077C006865636B20626F7820616E6420636F6EB6
:10078C006E656374696F6E73206265666F72652047
:10079C00726573746F72696E672E00486F70652096
:1007AC005369722F4D6164616D20796F7520746F80
:1007BC006F6B206D6561737572657320616E64205B
:1007CC006172726976656420617420796F7572202C
:1007DC0073686F77726F6F6D20746F2063686563D9
:1007EC006B20696E7472756465722E004265776158
:1007FC007265205369722F4D6164616D21204265D1
:10080C0020616C65727420736F6D656F6E65206509
:10081C006E746572696E6720796F75722073686F7C
:10082C0077726F6F6D2077697468206372696D6978
:10083C006E616C20696E74656E742E00596F7572E2
:10084C002073656375726974792073797374656D3F
:10085C00206973207475726E6564204F66662E0075
:10086C00596F757220736563757269747920737929
:10087C007374656D206973207475726E6564204F96
:10088C006E2E0041542B434D47533D220000000077
:10089C00000000000000000000000000000000004C
:1008AC000041542B435042463D224F574E45522255
:1008BC003B0D000000000000000041542B4350424F
:1008CC00533D22534D220000004154480D000000BE
:1008DC000000004154443E224F574E4552223B0DDE
:1008EC00000000000000004154443E224F574E458A
:1008FC005232223B0D00000000000041540D00005C
:10090C004F574E4552004F4E004F464600220D00A9
:0A091C0041542B434D47533D220088
:00000001FF
