:1000000012C0CBC002C12AC029C028C027C026C048
:1000100025C024C023C095C021C020C01FC01EC061
:100020001DC01CC01BC011241FBECFE5D4E0DEBF25
:10003000CDBF10E0A0E6B0E0E8E5F6E002C0059034
:100040000D92AE3FB107D9F721E0AEEFB0E001C0AD
:100050001D92AB3BB207E1F710D1FCC2D1CFEF92BA
:10006000FF920F931F93CF93DF93EC011092070140
:1000700010920601109205011092040189D210928B
:10008000070110920601109205011092040182E00E
:1000900090E0B7D191D282E090E0B3D1E09004013A
:1000A000F090050107EA11E081E0E816F104E1F7BC
:1000B00020910E0130910F0140910C0150910D01E2
:1000C000E0E1F1E0BF01605171409191992399F015
:1000D000923219F42F5F3F4FF5CF2330310541F4B1
:1000E000BA0169557E4FDB019C934F5F5F4FEACFAA
:1000F0002430310539F750930D0140930C01709372
:1001000009016093080130930F0120930E01F8015B
:1001100001900020E9F73197E75AF140EA30F10504
:1001200011F03D9709F61092070110920601BE01E9
:1001300087EA91E0DF91CF911F910F91FF90EF90AF
:10014000DBC11F920F920FB60F9211242F938F9342
:100150009F93EF93FF932CB12D30A9F02A3099F0A3
:100160008091060190910701FC01E05FFE4F208322
:100170000196909307018093060181E090E09093AF
:10018000050180930401FF91EF919F918F912F9131
:100190000F900FBE0F901F9018951F920F920FB6E1
:1001A0000F9211242F933F934F935F936F937F93FD
:1001B0008F939F93AF93BF93EF93FF93109201019F
:1001C000109200011092FF001092FE0084D180E096
:1001D00090E057D163E080E090E02FD281E090E0A2
:1001E00090930B0180930A01FF91EF91BF91AF9122
:1001F0009F918F917F916F915F914F913F912F913F
:100200000F900FBE0F901F9018951F920F920FB670
:100210000F9211242F933F934F935F936F937F938C
:100220008F939F93AF93BF93CF93DF93EF93FF93FE
:10023000C1E0D0E0D0930101C09300011092FF0013
:100240001092FE0062E080E090E0F7D1D0930B01C5
:10025000C0930A01FF91EF91DF91CF91BF91AF91D0
:100260009F918F917F916F915F914F913F912F91CE
:100270000F900FBE0F901F901895F0D0FBD00DD1AE
:1002800001E010E080E090E0D0D1823009F047C07A
:1002900080910A0190910B010197E9F4A89A2FEF40
:1002A00080E792E0215080409040E1F700C00000DC
:1002B000A89881E090E0E5D084E890E0D0DE10924C
:1002C000050110920401109207011092060110928C
:1002D0000B0110920A01B9D0019769F42FEF84E362
:1002E0009CE0215080409040E1F700C00000ADD07C
:1002F000892B41F004C097D0892B81F339C093D06A
:10030000892BB1F58091020190910301892B81F530
:1003100099D0CDD0109303010093020129C08330FE
:1003200039F580910A0190910B010197E9F4A89A9F
:100330002FEF80E792E0215080409040E1F700C02D
:100340000000A89880E090E09CD080E690E087DEF6
:1003500010920501109204011092070110920601FB
:1003600010920B0110920A011092030110920201E7
:10037000C0910401D0910501C130D10509F082CFAF
:100380006DEE70E080E191E036D1892B09F47ACFEF
:1003900063EF70E080E191E02ED1892B11F062E0F3
:1003A00008C066EF70E080E191E025D1892B61F013
:1003B00063E080E090E041D11092FF001092FE00D7
:1003C000D0930B01C0930A01109209011092080109
:1003D000109205011092040110920701109206017B
:1003E000E0E1F1E08081882309F44CCF1192FACF4B
:1003F0008130910511F4C19A0895892B09F4C198AF
:10040000089520E030E02817390761F04FEF50E7FA
:1004100062E0415050406040E1F700C000002F5FB3
:100420003F4FF1CF089583B383B393B383B393FD69
:1004300006C082958F7091E08927817001C080E0AD
:1004400090E0089581E090E0D3CF83B382958695C4
:10045000877091E08927817090E00895B99AA09AF9
:1004600081B3806F81BB85B38E6385BB82B38069A6
:1004700082BB08958BB7806C8BBF85E085BF789475
:1004800008958130910511F4969A0895892B21F4ED
:10049000969880E090E0ACCF089583E389B910BCD2
:1004A00080B5866880BD8AB188698AB90895CF937E
:1004B000DF93CFEDD0E08991882329F08CB981E0DA
:1004C00090E09FDFF8CF88E290E09BDF8AE08CB974
:1004D000DF91CF910895CF93DF93CAEDD0E089915A
:1004E000882329F08CB981E090E08BDFF8CF8AE097
:1004F0008CB9DF91CF910895EF92FF920F931F93E4
:10050000CF93DF937C018B01C1EBD0E099919923CC
:1005100029F09CB981E090E074DFF8CF84E190E0AD
:1005200070DF8AE08CB9B70187EA90E059D06AEFB2
:1005300070E087EA90E054D081E090E062DFC7EAA3
:10054000D0E08991882329F08CB981E090E059DFCF
:10055000F8CF84E190E055DF8AE08CB981E090E04B
:1005600050DFE8018991882329F08CB981E090E07F
:1005700048DFF8CF8AE18CB984E190E042DF8AE07D
:100580008CB9DF91CF911F910F91FF90EF9008955B
:10059000CF93DF93CDECD0E08991882329F08CB9FB
:1005A00081E090E02EDFF8CF84E190E02ADF8AE05E
:1005B0008CB9DF91CF910895CF93DF93CBEBD0E04F
:1005C0008991882329F08CB981E090E01ADFF8CF77
:1005D00084E190E016DF8AE08CB9DF91CF91089535
:1005E000FB01DC010D900020E9F7119701900D92BD
:1005F0000020E1F70895FB0151915523A9F0BF01B7
:10060000DC014D9145174111E1F759F4CD010190FD
:10061000002049F04D9140154111C9F3FB014111F2
:10062000EFCF81E090E001970895E199FECF9FBB65
:100630008EBBE09A99278DB30895262FE199FECFBE
:100640009FBB8EBB2DBB0FB6F894E29AE19A0FBE0A
:0806500001960895F894FFCF14
:10065800596F75722073656375726974792073793F
:100668007374656D206973207475726E6564204FAC
:1006780046462E00596F75722073656375726974EA
:10068800792073797374656D206973207475726E3F
:100698006564204F4E2E0041542B434D47533D2255
:1006A8000041542B434D47463D310041542B4350A4
:1006B80042463D224F574E4552223B0D0041542B96
:1006C800435042533D22534D22004154480D0041AE
:1006D80054443E224F574E4552223B0D004F574E31
:0E06E8004552004F6E004F666600220D000066
:00000001FF
