S00E000073745F6964732E7372656390
S113000012C0C8C0FBC02AC029C028C027C026C04F
S113001025C024C023C092C021C020C01FC01EC060
S11300201DC01CC01BC011241FBECFE5D4E0DEBF21
S1130030CDBF11E0A0E6B0E0EAE3F6E002C005902F
S11300400D92AE32B107D9F721E0AEE2B1E001C0C2
S11300501D92A93EB207E1F709D1EDC2D1CFCF93EA
S1130060DF93EC0110923D0110923C0110923B0190
S113007010923A0110923701109236011092350114
S11300801092340176D210923701109236011092F8
S113009035011092340181E090E08AD17ED28091C2
S11300A0340190913501019709F045C020913C013C
S11300B030913D0140913A0150913B01EEE3F1E072
S11300C0BF016E5371409191992391F0923219F4CA
S11300D02F5F3F4FF5CF2330310539F4DA01AB52AE
S11300E0BE4F9C934F5F5F4FEBCF2430310541F7F8
S11300F030933D0120933C0150933B0140933A01DE
S11301007093390160933801E5EDF1E0019000202E
S1130110E9F73197E55DF140EA30F10511F03D97DB
S113012051F41092370110923601BE0185ED91E031
S1130130DF91CF91D2C1DF91CF9108951F920F9299
S11301400FB60F9211242F938F939F93EF93FF93E6
S11301502CB12D3079F02A3069F0809136019091DC
S11301603701FC01E25CFE4F208301969093370136
S11301708093360181E090E09093350180933401BF
S1130180FF91EF919F918F912F910F900FBE0F9040
S11301901F9018951F920F920FB60F9211242F9350
S11301A03F934F935F936F937F938F939F93AF93FB
S11301B0BF93EF93FF93109231011092300144D119
S11301C081E090E090932F0180932E0180E090E0F5
S11301D02FD163E080E090E021D2FF91EF91BF91B5
S11301E0AF919F918F917F916F915F914F913F91CB
S11301F02F910F900FBE0F901F9018951F920F9282
S11302000FB60F9211242F933F934F935F936F93E5
S11302107F938F939F93AF93BF93CF93DF93EF938A
S1130220FF93C1E0D0E0D0933101C09330010CD1F1
S1130230D0932F01C0932E0181E090E0F9D062E0C9
S113024080E090E0EBD1FF91EF91DF91CF91BF91EE
S1130250AF919F918F917F916F915F914F913F915A
S11302602F910F900FBE0F901F901895CED0D9D01C
S1130270F1D080E090E0FC01E25CFE4F1082019638
S113028086399105C1F790933B0180933A0110920E
S1130290370110923601109235011092340180E03A
S11302A090E0B4D18230D1F5A7D0019769F42FEF53
S11302B084E39CE0215080409040E1F700C00000BE
S11302C09BD0892B41F004C085D0892B81F32CC0AD
S11302D081D0892B49F58091320190913301892B8A
S11302E019F587D0C1D080E991E062D0E5D081E0F2
S11302F090E05ED0CDD081E090E090933301809384
S1130300320184E190E054D080E690E0A8DEEEE390
S1130310F1E08081882341F01192FBCF833021F4F6
S11303201092330110923201809134019091350181
S1130330019709F0B4CF6DE171E08EE391E04CD107
S1130340892B09F4A4CF63E271E08EE391E044D1F8
S1130350892B59F079D081E090E06AD062E080E0A6
S113036090E05CD185EA90E07ADE66E271E08EE3AB
S113037091E032D1892B59F067D080E090E058D0D9
S113038063E080E090E04AD181E890E068DEEEE34B
S1130390F1E08081882309F47ACF1192FACF813079
S11303A0910511F4C19A0895892B09F4C19808950F
S11303B020E030E02817390761F04FEF50E762E0A2
S11303C0415050406040E1F700C000002F5F3F4FB4
S11303D0F1CF089583B383B393B383B393FD06C07E
S11303E082958F7091E08927817001C080E090E050
S11303F0089581E090E0D3CF83B38295869587708A
S113040091E08927817090E00895B99AA09A81B308
S1130410806F81BB85B38E6385BB82B3806982BBE9
S113042008958BB7806C8BBF85E085BF7894089561
S11304308130910511F4969A0895892B21F49698A8
S113044080E090E0ACCF0895A89A81E090E0B0DF1E
S1130450A898089583E389B910BC80B5866880BDE7
S11304608AB188698AB90895CF93DF93C0E0D1E057
S11304708991882329F08CB981E090E099DFF8CF45
S113048088E290E095DF8AE08CB9DF91CF910895FE
S1130490CF93DF93CEE0D1E08991882329F08CB902
S11304A081E090E085DFF8CF88E290E081DF8AE0A8
S11304B08CB9DF91CF910895CF93DF93CBEFD0E048
S11304C08991882329F08CB981E090E071DFF8CF1D
S11304D08AE08CB9DF91CF910895EF92FF920F9348
S11304E01F93CF93DF937C018B01C2EDD0E09991F0
S11304F0992329F09CB981E090E05ADFF8CF84E198
S113050090E056DF8AE08CB9B70188EC90E059D0CE
S11305106AE271E088EC90E054D081E090E048DF3A
S1130520C8ECD0E08991882329F08CB981E090E06F
S11305303FDFF8CF84E190E03BDF8AE08CB981E0D3
S113054090E036DFE8018991882329F08CB981E0B5
S113055090E02EDFF8CF8AE18CB984E190E028DFC7
S11305608AE08CB9DF91CF911F910F91FF90EF90AA
S11305700895CF93DF93CEEED0E08991882329F0BC
S11305808CB981E090E014DFF8CF84E190E010DFD3
S11305908AE08CB9DF91CF910895CF93DF93CCEDAE
S11305A0D0E08991882329F08CB981E090E000DFC4
S11305B0F8CF84E190E0FCDE8AE08CB9DF91CF9142
S11305C00895FB01DC010D900020E9F711970190DB
S11305D00D920020E1F70895FB0151915523A9F0F4
S11305E0BF01DC014D9145174111E1F759F4CD01EB
S11305F00190002049F04D9140154111C9F3FB01D0
S11306004111EFCF81E090E001970895E199FECF89
S11306109FBB8EBBE09A99278DB30895262FE1994D
S1130620FECF9FBB8EBB2DBB0FB6F894E29AE19A26
S10D06300FBE01960895F894FFCF61
S113063A496E747275646F72732044657465637469
S113064A656420617420796F757220736974652EEC
S113065A00596F75722073656375726974792073B2
S113066A797374656D206973207475726E6564207C
S113067A4F46462E00596F75722073656375726909
S113068A74792073797374656D2069732074757233
S113069A6E6564204F4E2E0041542B434D47533D03
S11306AA220041542B434D47463D310041542B43CC
S11306BA5042463D224F574E4552223B0D0041546B
S11306CA2B435042533D22534D22004154480D00BE
S11306DA4154443E224F574E4552223B0D00415449
S11306EA443E224F574E455232223B0D004F574E3D
S11106FA4552004F4E004F464600220D0000B0
S9030000FC
