S00E000073745F6964732E7372656390
S113000012C0E9C01AC12AC029C028C027C026C00E
S113001025C024C023C0B3C021C020C01FC01EC03F
S11300201DC01CC01BC011241FBECFE5D4E0DEBF21
S1130030CDBF11E0A0E6B0E0ECE0F6E002C0059030
S11300400D92A430B107D9F721E0A4E0B1E001C0DA
S11300501D92AF3BB207E1F720D1D6C2D1CF0F93A7
S11300601F93CF93DF93EC0110920D0110920C01BA
S113007010920B0110920A0165D210920D01109298
S11300800C0110920B0110920A0182E090E09BD1C6
S11300906DD282E090E097D10BEA11E080910A01E1
S11300A090910B01019709F051C0209112013091F8
S11300B013014091100150911101E4E1F1E0BF01FD
S11300C0645171408191882391F0823219F42F5F39
S11300D03F4FF5CF2330310539F4DA01A555BE4F32
S11300E08C934F5F5F4FEBCF2430310541F7709312
S11300F00F0160930E01309313012093120150936A
S1130100110140931001F80101900020E9F73197A3
S1130110EB5AF140EA30F10511F03D9749F41092A1
S11301200D0110920C01BE018BEA91E0BFD107C012
S11301306DEE70E084E191E038D2892B39F080E0F3
S113014090E0DF91CF911F910F9175C181E090E014
S113015072D12FEF80E792E0215080409040E1F788
S113016000C0000080E090E066D12FEF80E792E0CD
S1130170215080409040E1F700C000008FCF1F92D3
S11301800F920FB60F9211242F938F939F93EF9397
S1130190FF932CB12D30A9F02A3099F080910C01F5
S11301A090910D01FC01EC5EFE4F2083019690932B
S11301B00D0180930C0181E090E090930B018093FA
S11301C00A01FF91EF919F918F912F910F900FBE94
S11301D00F901F9018951F920F920FB60F92112433
S11301E02F933F934F935F936F937F938F939F933B
S11301F0AF93BF93EF93FF93109207011092060100
S1130200109205011092040140D180E090E013D1D6
S113021063E080E090E0EBD1FF91EF91BF91AF916B
S11302209F918F917F916F915F914F913F912F910A
S11302300F900FBE0F901F9018951F920F920FB63C
S11302400F9211242F933F934F935F936F937F9358
S11302508F939F93AF93BF93EF93FF9381E090E0CD
S113026090930701809306011092050110920401F6
S113027062E080E090E0BBD1FF91EF91BF91AF913C
S11302809F918F917F916F915F914F913F912F91AA
S11302900F900FBE0F901F901895BAD0A09A2FEF11
S11302A089E698E1215080409040E1F700C00000C9
S11302B0A098BAD0CCD080E090E091D1823059F5AA
S11302C081E090E0B8D084E890E0C9DE10920B01A0
S11302D010920A0110920D0110920C0186D0892B04
S11302E071F52FEF84E39CE0215080409040E1F7CA
S11302F000C000007AD0892B11F5809108019091FB
S11303000901892BE1F480D081E090E09093090108
S11303108093080114C0833091F480E090E08BD086
S113032080E690E09CDE10920B0110920A0110927C
S11303300D0110920C011092090110920801809194
S11303400A0190910B01019709F0B5CF63EF70E0BA
S113035084E191E02AD1892B09F4ADCF69EF70E0F3
S113036084E191E022D1892B11F062E008C06CEFA6
S113037070E084E191E019D1892B41F063E080E0E1
S113038090E035D1109205011092040110920F01F2
S113039010920E0110920B0110920A0110920D019D
S11303A010920C01E4E1F1E08081882309F483CF09
S11303B01192FACF8130910511F4C19A0895892BD5
S11303C009F4C198089520E030E02817390761F056
S11303D04FEF50E762E0415050406040E1F700C009
S11303E000002F5F3F4FF1CF089583B383B393B3DE
S11303F083B393FD06C082958F7091E08927817045
S113040001C080E090E0089581E090E0D3DF29C04E
S1130410B99AA09A81B3806F81BB85B38E6385BB83
S113042082B3806982BB08958BB7806C8BBF85E0F3
S113043085BF789408958130910511F4969A0895B2
S1130440892B21F4969880E090E0B4CF089583E35B
S113045089B910BC80B5866880BD8AB188698AB9BB
S11304600895CF93DF93CFEDD0E08991882329F0CD
S11304708CB981E090E0A7DFF8CF88E290E0A3DFB9
S11304808AE08CB9DF91CF910895CF93DF93CAEDC1
S1130490D0E08991882329F08CB981E090E093DF42
S11304A0F8CF8AE08CB9DF91CF910895EF92FF9253
S11304B00F931F93CF93DF937C018B01C1EBD0E0AB
S11304C09991992329F09CB981E090E07CDFF8CFE1
S11304D084E190E078DF8AE08CB9B70187EA90E0A4
S11304E059D060E071E087EA90E054D081E090E078
S11304F06ADFC7EAD0E08991882329F08CB981E0CA
S113050090E061DFF8CF84E190E05DDF8AE08CB9B0
S113051081E090E058DFE8018991882329F08CB9C3
S113052081E090E050DFF8CF8AE18CB984E190E07B
S11305304ADF8AE08CB9DF91CF911F910F91FF9030
S1130540EF900895CF93DF93CDECD0E08991882389
S113055029F08CB981E090E036DFF8CF84E190E0B7
S113056032DF8AE08CB9DF91CF910895CF93DF9386
S1130570CBEBD0E08991882329F08CB981E090E01D
S113058022DFF8CF84E190E01EDF8AE08CB9DF91AE
S1130590CF910895FB01DC010D900020E9F711973C
S11305A001900D920020E1F70895FB01519155232C
S11305B0A9F0BF01DC014D9145174111E1F759F450
S11305C0CD010190002049F04D9140154111C9F32E
S11305D0FB014111EFCF81E090E001970895E1998B
S11305E0FECF9FBB8EBBE09A99278DB30895262F2B
S11305F0E199FECF9FBB8EBB2DBB0FB6F894E29A58
S10F0600E19A0FBE01960895F894FFCF14
S113060C596F757220736563757269747920737987
S113061C7374656D206973207475726E6564204FF4
S113062C46462E00596F7572207365637572697432
S113063C792073797374656D206973207475726E87
S113064C6564204F4E2E0041542B434D47533D229D
S113065C0041542B434D47463D310041542B4350EC
S113066C42463D224F574E4552223B0D0041542BDE
S113067C435042533D22534D22004154480D0041F6
S113068C54443E224F574E4552223B0D0045525284
S113069C4F52004F574E4552006F6E004F66660026
S10706AC220D000017
S9030000FC
