:1000000012C0ECC023C12AC029C028C027C026C006
:1000100025C024C023C0B6C021C020C01FC01EC040
:100020001DC01CC01BC011241FBECFE5D4E0DEBF25
:10003000CDBF11E0A0E6B0E0EAE7F6E002C005902F
:100040000D92A430B107D9F721E0A4E0B1E001C0DE
:100050001D92A13CB207E1F731D10DC3D1CF0F936F
:100060001F93CF93DF93EC0110920D0110920C01BE
:1000700010920B0110920A019CD210920D01109265
:100080000C0110920B0110920A0182E090E0D2D193
:10009000A4D282E090E0CED10DEA11E080910A0175
:1000A00090910B01019709F054C0209114013091F7
:1000B00015014091120150911301E6E1F1E0BF01F9
:1000C000665171408191882391F0823219F42F5F3B
:1000D0003F4FF5CF2330310539F4DA01A355BE4F38
:1000E0008C934F5F5F4FEBCF2430310541F7709316
:1000F0000F0160930E01309315012093140150936A
:10010000130140931201F80101900020E9F73197A3
:10011000ED5AF140EA30F10511F03D9761F410928B
:100120000D0110920C01BE018DEA91E0DF91CF919B
:100130001F910F91F2C16DEE70E086E191E06CD2FB
:10014000892B39F080E090E0DF91CF911F910F91E2
:10015000A9C181E090E0A6D12FEF80E792E0215085
:1001600080409040E1F700C0000080E090E09AD12C
:100170002FEF80E792E0215080409040E1F700C0EF
:1001800000008CCF1F920F920FB60F9211242F9365
:100190008F939F93EF93FF932CB12D30A9F02A30CA
:1001A00099F080910C0190910D01FC01EA5EFE4FE7
:1001B0002083019690930D0180930C0181E090E0E3
:1001C00090930B0180930A01FF91EF919F918F9182
:1001D0002F910F900FBE0F901F9018951F920F92A6
:1001E0000FB60F9211242F933F934F935F936F930A
:1001F0007F938F939F93AF93BF93EF93FF9310924F
:10020000070110920601109205011092040174D1A9
:1002100080E090E047D163E080E090E01FD281E091
:1002200090E09093110180931001FF91EF91BF91A5
:10023000AF919F918F917F916F915F914F913F917E
:100240002F910F900FBE0F901F9018951F920F9235
:100250000FB60F9211242F933F934F935F936F9399
:100260007F938F939F93AF93BF93CF93DF93EF933E
:10027000FF93C1E0D0E0D0930701C0930601109234
:1002800005011092040162E080E090E0E7D1D09394
:100290001101C0931001FF91EF91DF91CF91BF91B8
:1002A000AF919F918F917F916F915F914F913F910E
:1002B0002F910F900FBE0F901F901895E0D0EBD0AC
:1002C000FDD001E010E080E090E0C0D1823009F084
:1002D0003FC080911001909111010197E9F4A89A13
:1002E0002FEF80E792E0215080409040E1F700C07E
:1002F0000000A89881E090E0D5D084E890E0AFDEDF
:1003000010920B0110920A0110920D0110920C0133
:1003100010921101109210019FD0892B09F041C059
:100320002FEF84E39CE0215080409040E1F700C033
:10033000000092D0892BA9F58091080190910901C4
:10034000892B79F598D0109309010093080129C0F1
:10035000833039F580911001909111010197E9F4F2
:10036000A89A2FEF80E792E0215080409040E1F77B
:1003700000C00000A89880E090E094D080E690E073
:100380006EDE10920B0110920A0110920D01109274
:100390000C0110921101109210011092090110929B
:1003A0000801C0910A01D0910B01C130D10509F0BB
:1003B0008ACF63EF70E086E191E02ED1892B09F4BA
:1003C00082CF69EF70E086E191E026D1892B11F0B0
:1003D00062E008C06CEF70E086E191E01DD1892BEE
:1003E00061F063E080E090E039D110920501109255
:1003F0000401D0931101C093100110920F011092CB
:100400000E0110920B0110920A0110920D01109230
:100410000C01E6E1F1E08081882309F454CF1192C8
:10042000FACF8130910511F4C19A0895892B09F40E
:10043000C198089520E030E02817390761F04FEFA8
:1004400050E762E0415050406040E1F700C00000DA
:100450002F5F3F4FF1CF089583B383B393B383B33B
:1004600093FD06C082958F7091E08927817001C04D
:1004700080E090E0089581E090E0D3DF29C0B99A50
:10048000A09A81B3806F81BB85B38E6385BB82B335
:10049000806982BB08958BB7806C8BBF85E085BF78
:1004A000789408958130910511F4969A0895892BD6
:1004B00021F4969880E090E0B4CF089583E389B961
:1004C00010BC80B5866880BD8AB188698AB90895F4
:1004D000CF93DF93CFEDD0E08991882329F08CB9B9
:1004E00081E090E0A7DFF8CF88E290E0A3DF8AE028
:1004F0008CB9DF91CF910895CF93DF93CAEDD0E00F
:100500008991882329F08CB981E090E093DFF8CFBE
:100510008AE08CB9DF91CF910895EF92FF920F930B
:100520001F93CF93DF937C018B01C1EBD0E09991B6
:10053000992329F09CB981E090E07CDFF8CF84E139
:1005400090E078DF8AE08CB9B70187EA90E059D073
:1005500060E071E087EA90E054D081E090E06ADFEB
:10056000C7EAD0E08991882329F08CB981E090E036
:1005700061DFF8CF84E190E05DDF8AE08CB981E053
:1005800090E058DFE8018991882329F08CB981E057
:1005900090E050DFF8CF8AE18CB984E190E04ADF47
:1005A0008AE08CB9DF91CF911F910F91FF90EF906E
:1005B0000895CF93DF93CDECD0E08991882329F083
:1005C0008CB981E090E036DFF8CF84E190E032DF53
:1005D0008AE08CB9DF91CF910895CF93DF93CBEB75
:1005E000D0E08991882329F08CB981E090E022DF66
:1005F000F8CF84E190E01EDF8AE08CB9DF91CF91E3
:100600000895FB01DC010D900020E9F7119701909E
:100610000D920020E1F70895FB0151915523A9F0B7
:10062000BF01DC014D9145174111E1F759F4CD01AE
:100630000190002049F04D9140154111C9F3FB0193
:100640004111EFCF81E090E001970895E199FECF4D
:100650009FBB8EBBE09A99278DB30895262FE19911
:10066000FECF9FBB8EBB2DBB0FB6F894E29AE19AEA
:0A0670000FBE01960895F894FFCF25
:10067A00596F75722073656375726974792073791D
:10068A007374656D206973207475726E6564204F8A
:10069A0046462E00596F75722073656375726974C8
:1006AA00792073797374656D206973207475726E1D
:1006BA006564204F4E2E0041542B434D47533D2233
:1006CA000041542B434D47463D310041542B435082
:1006DA0042463D224F574E4552223B0D0041542B74
:1006EA00435042533D22534D22004154480D00418C
:1006FA0054443E224F574E4552223B0D004552521A
:10070A004F52004F574E4552006F6E004F666600BB
:04071A00220D0000AC
:00000001FF
