:1000000012C0BFC0FEC02AC029C028C027C026C059
:1000100025C024C023C089C021C020C01FC01EC06D
:100020001DC01CC01BC011241FBECFE5D4E0DEBF25
:10003000CDBF11E0A0E6B0E0E2E1F7E002C005903C
:100040000D92AE37B107D9F722E0AEE7B1E001C0BB
:100050001D92AB33B207E1F712D159C3D1CF109241
:100060008F0110928E0110928D0110928C011092CE
:100070008701109286011092850110928401E5D2C9
:1000800010928701109286011092850110928401CE
:1000900081E090E0F9D1EDD28091840190918501C9
:1000A0000197F1F580918E0190918F0120918C0143
:1000B00030918D01E0E9F1E0BF016059714041915B
:1000C000442389F0423211F40196F6CF8330910532
:1000D00039F4D901A95DBD4F4C932F5F3F4FECCF51
:1000E0008430910549F790938F0180938E0130936E
:1000F0008D0120938C017093890160938801E7E260
:10010000F2E001900020E9F73197E752F240EA303F
:10011000F10541F081E090E03D9731F080E00895F5
:1001200080E001C081E090E008951F920F920FB629
:100130000F9211242F938F939F93EF93FF932CB1E2
:100140002D3079F02A3069F08091860190918701F5
:10015000FC01E057FE4F2083019690938701809326
:10016000860181E090E09093850180938401FF9166
:10017000EF919F918F912F910F900FBE0F901F9035
:1001800018951F920F920FB60F9211242F933F9341
:100190004F935F936F937F938F939F93AF93BF938F
:1001A000EF93FF9380918A0190918B01892B39F411
:1001B00081E090E090938B0180938A01B1D11092FD
:1001C00081011092800181E090E090937F01809303
:1001D0007E0180E090E098D163E080E090E08AD2F8
:1001E000FF91EF91BF91AF919F918F917F916F910F
:1001F0005F914F913F912F910F900FBE0F901F90E5
:1002000018951F920F920FB60F9211242F933F93C0
:100210004F935F936F937F938F939F93AF93BF930E
:10022000EF93FF9380918A0190918B01892B39F490
:1002300081E090E090938B0180938A0171D181E0FD
:1002400090E0909381018093800190937F0180934F
:100250007E015AD162E080E090E04CD2FF91EF91B4
:10026000BF91AF919F918F917F916F915F914F91CE
:100270003F912F910F900FBE0F901F90189531D185
:100280003CD154D18EE190E0FFD081E090E03CD1B0
:10029000E6DEEC0180E090E037D12197B1F71092D3
:1002A000870110928601109285011092840180E0EE
:1002B00090E0FC01E057FE4F1082019686399105CF
:1002C000C1F7909389018093880180E090E00AD281
:1002D000823009F072C0109287011092860110924C
:1002E00085011092840185E090E0CED010928B01C0
:1002F00010928A01EDD0019769F42FEF84E39CE01E
:10030000215080409040E1F700C00000E1D0892BEF
:1003100049F004C0CBD0892B81F364C0C7D0892BAE
:1003200009F060C08091820190918301892B09F0CE
:1003300059C0CBD005D18EE591E0A6D029D181E07E
:1003400090E0A2D011D18EE591E09ED021D1109203
:1003500087011092860181E090E096D066EA70E015
:1003600087E292E026D110928701109286018CE2FA
:1003700091E08AD066E870E087E292E01AD11092AC
:100380008701109286018CE291E07ED060E670E0F9
:1003900087E292E00ED18AE090E076D081E090E0B2
:1003A00090938301809382011092870110928601BD
:1003B000109285011092840115C0833099F4109237
:1003C000870110928601109285011092840185E0C8
:1003D00090E05AD010928B0110928A011092830102
:1003E000109282018091840190918501019709F01A
:1003F0006CCF6EE671E080E991E05AD1892B09F467
:1004000064CF64E771E080E991E052D1892B59F023
:1004100087D081E090E078D062E080E090E06AD11F
:1004200066EF70E011C067E771E080E991E040D1CC
:10043000892B69F075D080E090E066D063E080E0C1
:1004400090E058D162ED70E087E292E0B2D0E0E94E
:10045000F1E08081882311F01192FBCF1092890185
:1004600010928801109287011092860110928501E6
:10047000109284012ACF8130910511F4C19A089518
:10048000892B09F4C198089520E030E02817390736
:1004900061F04FEF50E762E0415050406040E1F7BB
:1004A00000C000002F5F3F4FF1CF089583B383B3A7
:1004B00093B383B393FD06C082958F7091E0892733
:1004C000817001C080E090E0089581E090E0D3CF9A
:1004D00083B382958695877091E08927817090E03B
:1004E0000895B99AA09A81B3806F81BB85B38E635A
:1004F00085BB82B3806982BB08958BB7806C8BBF4C
:1005000085E085BF789408958130910511F4969A1D
:100510000895892B21F4969880E090E0ACCF08955F
:10052000A89A81E090E0B0DFA898089583E389B9A4
:1005300010BC80B5866880BD8AB188698AB9089583
:10054000CF93DF93C1E5D1E08991882329F08CB95D
:1005500081E090E099DFF8CF88E290E095DF8AE0D3
:100560008CB9DF91CF910895CF93DF93CFE5D1E0A0
:100570008991882329F08CB981E090E085DFF8CF5C
:1005800088E290E081DF8AE08CB9DF91CF91089515
:10059000CF93DF93CCE4D1E08991882329F08CB903
:1005A00081E090E071DFF8CF8AE08CB9DF91CF91E4
:1005B0000895EF92FF920F931F93CF93DF937C01E7
:1005C0008B01C3E2D1E09991992329F09CB981E094
:1005D00090E05ADFF8CF84E190E056DF8AE08CB9F2
:1005E000B70189E191E059D06BE771E089E191E0D1
:1005F00054D081E090E048DFC9E1D1E089918823BF
:1006000029F08CB981E090E03FDFF8CF84E190E001
:100610003BDF8AE08CB981E090E036DFE801899128
:10062000882329F08CB981E090E02EDFF8CF8AE1B1
:100630008CB984E190E028DF8AE08CB9DF91CF911A
:100640001F910F91FF90EF900895CF93DF93CFE329
:10065000D1E08991882329F08CB981E090E014DF02
:10066000F8CF84E190E010DF8AE08CB9DF91CF9180
:100670000895CF93DF93CDE2D1E08991882329F0CB
:100680008CB981E090E000DFF8CF84E190E0FCDEFF
:100690008AE08CB9DF91CF910895FB01DC010D90C8
:1006A0000020E9F7119701900D920020E1F70895DD
:1006B000FB0151915523A9F0BF01DC014D91451774
:1006C0004111E1F759F4CD010190002049F04D911D
:1006D00040154111C9F3FB014111EFCF81E090E0DA
:1006E00001970895E199FECF9FBB8EBBE09A9927B1
:1006F0008DB30895262FE199FECF9FBB8EBB2DBBF6
:100700000FB6F894E29AE19A0FBE01960895F89414
:02071000FFCF19
:10071200486F706520796F75206861766520746115
:100722006B656E206E6563657373617279206163B8
:1007320074696F6E2E004B696E646C792074616B04
:100742006520617070726F70726961746520616397
:1007520074696F6E2E00416C6572742120496E744B
:100762007275646572732044657465637465642090
:10077200696E20796F7572207072656D6973657329
:100782002E00596F757220736563757269747920D2
:1007920073797374656D206973207475726E656404
:1007A200204F66662E00596F7572207365637572ED
:1007B2006974792073797374656D20697320747517
:1007C200726E6564204F6E2E0041542B434D475389
:1007D2003D220041542B434D47463D310041542BAD
:1007E200435042463D224F574E4552223B0D004157
:1007F200542B435042533D22534D22004154480D45
:10080200004154443E224F574E4552223B0D004177
:1008120054443E224F574E455232223B0D004F5711
:0E0822004E4552004F4E004F464600220D003C
:00000001FF
