S00E000073745F6964732E7372656390
S113000012C0C1C0F7C02AC029C028C027C026C05A
S113001025C024C023C08BC021C020C01FC01EC067
S11300201DC01CC01BC011241FBECFE5D4E0DEBF21
S1130030CDBF12E0A0E6B0E0E2EBF6E002C005902E
S11300400D92A630B107D9F722E0A6E0B2E001C0D4
S11300501D92AE3BB207E1F703D129C3D1CFE4E14E
S1130060F2E0CF01845192402081222311F01192B9
S1130070F8CF909311028093100210920B02109209
S11300800A021092090210920802089510920F02B7
S113009010920E0210920D0210920C02E0DFA5D213
S11300A0DEDF81E090E08FD1B4D28091080290919C
S11300B009020197B9F580910E0290910F022091E7
S11300C00C0230910D02E4E1F2E04191442389F005
S11300D0423211F40196F9CF8330910539F4D901F4
S11300E0A655BD4F4C932F5F3F4FEFCF8430910502
S11300F061F790930F0280930E0230930D022093C8
S11301000C02EAEAF2E001900020E9F73197EA5A9A
S1130110F240EA30F10541F081E090E03D9731F0A2
S113012080E0089580E001C081E090E008951F928E
S11301300F920FB60F9211242F938F939F93EF93E7
S1130140FF932CB12D3079F02A3069F080910A02A6
S113015090910B02FC01EC5EFD4F2083019690937D
S11301600B0280930A0281E090E09093090280934D
S11301700802FF91EF919F918F912F910F900FBEE5
S11301800F901F9018951F920F920FB60F92112483
S11301902F933F934F935F936F937F938F939F938B
S11301A0AF93BF93EF93FF93809112029091130248
S11301B0892B39F481E090E090931302809312022A
S11301C054D180E090E045D188D163E080E090E0B4
S11301D061D2FF91EF91BF91AF919F918F917F91E8
S11301E06F915F914F913F912F910F900FBE0F90A0
S11301F01F9018951F920F920FB60F9211242F93F0
S11302003F934F935F936F937F938F939F93AF939A
S1130210BF93EF93FF938091120290911302892B65
S113022039F481E090E090931302809312021DD17F
S113023081E090E00ED162E080E090E02BD2FF916B
S1130240EF91BF91AF919F918F917F916F915F914A
S11302504F913F912F910F900FBE0F901F901895C3
S1130260DED0E9D008D18EE190E0ADD085E090E019
S1130270AAD081E090E0EDD009DFEC0180E090E0CD
S1130280E8D0219799F7EBDE63E080E090E002D2BA
S1130290C1E0D0E0D7D0892B59F08AEA92E07AD134
S11302A010920B0210920A02109209021092080294
S11302B080E090E0E7D18230A9F510920B02109211
S11302C00A02109209021092080285E090E07BD0A5
S11302D0109213021092120299D0019769F42FEF31
S11302E084E39CE0215080409040E1F700C000008E
S11302F08DD0892B41F004C078D0892B81F323C0A1
S113030074D0892B01F58091060290910702892B04
S1130310D1F48AEA92E03ED1D0930702C093060258
S11303209EDE11C0833079F410920B0210920A02FF
S1130330109209021092080285E090E044D01092D5
S113034013021092120280910802909109020197FF
S113035009F0A0CF65EF71E084E192E079D1892BB7
S113036009F498CF6BEF71E084E192E071D1892BAD
S113037059F07BD081E090E06CD062E080E090E0C6
S113038089D164E870E011C06EEF71E084E192E01D
S11303905FD1892B69F069D080E090E05AD063E0A6
S11303A080E090E077D160E670E08AEA92E0A6D03F
S11303B056DE70CF8130910511F4C19A0895892BCE
S11303C009F4C198089520E030E02817390761F056
S11303D04FEF50E762E0415050406040E1F700C009
S11303E000002F5F3F4FF1CF089583B393B383B3DE
S11303F093FD06C082958F7091E08927817001C0BA
S113040080E090E0089581E090E0D4CF83B38295BA
S11304108695877091E08927817090E00895B99A54
S1130420A09A81B3806F81BB85B38E6385BB82B391
S1130430806982BB08958BB7806C8BBF85E085BFD4
S11304407894089583B3869591E08927817090E02C
S113045008958130910511F4969A0895892B21F419
S1130460969880E090E0A6CF0895A89A81E090E065
S1130470AADFA898089583E389B910BC80B586687B
S113048080BD8AB188698AB90895CF93DF93CFED8F
S1130490D0E08991882329F08CB981E090E093DF42
S11304A0F8CF88E290E08FDF8AE08CB9DF91CF91BA
S11304B00895CF93DF93CDEED0E08991882329F07E
S11304C08CB981E090E07FDFF8CF88E290E07BDFB9
S11304D08AE08CB9DF91CF910895CF93DF93CAED71
S11304E0D0E08991882329F08CB981E090E06BDF1A
S11304F0F8CF8AE08CB9DF91CF910895EF92FF9203
S11305000F931F93CF93DF937C018B01C1EBD0E05A
S11305109991992329F09CB981E090E054DFF8CFB8
S113052084E190E050DF8AE08CB9B70187EA90E07B
S113053084D062E072E087EA90E07FD081E090E0CE
S113054042DFC7EAD0E08991882329F08CB981E0A1
S113055090E039DFF8CF84E190E035DF8AE08CB9B0
S113056081E090E030DFE8018991882329F08CB99B
S113057081E090E028DFF8CF8AE18CB984E190E053
S113058022DF8AE08CB9DF91CF911F910F91FF9008
S1130590EF900895CF93DF93EC0135DF76DF8EE59E
S11305A091E011DF9ADF81E090E00DDF82DF8EE5DC
S11305B091E009DF92DF81E090E005DF65EA71E018
S11305C0CE019CDF8CE291E0FEDE64E571E0CE01B9
S11305D095DF8CE291E0F7DE6CEF70E0CE018EDF08
S11305E08AE090E0DF91CF91EECECF93DF93CDEC14
S11305F0D0E08991882329F08CB981E090E0E3DE92
S1130600F8CF84E190E0DFDE8AE08CB9DF91CF910E
S11306100895CF93DF93CBEBD0E08991882329F021
S11306208CB981E090E0CFDEF8CF84E190E0CBDEBE
S11306308AE08CB9DF91CF910895FB01DC010D9024
S11306400020E9F7119701900D920020E1F7089539
S1130650FB0151915523A9F0BF01DC014D914517D0
S11306604111E1F759F4CD010190002049F04D9179
S113067040154111C9F3FB014111EFCF81E090E036
S113068001970895E199FECF9FBB8EBBE09A99270D
S11306908DB30895262FE199FECF9FBB8EBB2DBB52
S11306A00FB6F894E29AE19A0FBE01960895F89471
S10506B0FFCF76
S11306B2596F7572207365637572697479207379E1
S11306C27374656D206973207475726E6564204F4E
S11306D266662E00596F757220736563757269744C
S11306E2792073797374656D206973207475726EE1
S11306F26564204F6E2E0041542B434D47533D22D7
S11307020041542B434D47463D310041542B435045
S113071242463D224F574E4552223B0D0041542B37
S1130722435042533D22534D22004154480D00414F
S113073254443E224F574E4552223B0D00415444ED
S11307423E224F574E455232223B0D004B696E6496
S11307526C7920737769746368206F6666207468A5
S11307626520616C61726D206F6E636520796F75AF
S113077220726561636820616E6420636865636BDF
S113078220626F782C20636F6E6E656374696F6E7E
S113079273206265666F726520726573746F726925
S11307A26E672E00486F7065205369722F4D616425
S11307B2616D20796F7520746F6F6B206D65617345
S11307C27572657320616E64206172726976656404
S11307D220617420796F75722073686F77726F6FFE
S11307E26D20746F20636865636B20696E74727523
S11307F26465722E00426577617265205369722FB7
S11308024D6164616D2120426520616C65727420C2
S1130812736F6D656F6E6520656E746572696E6760
S113082220796F75722073686F77726F6F6D20779E
S1130832697468206372696D696E616C20696E7493
S1130842656E742E004F574E4552004F4E004F4670
S10908524600220D000027
S9030000FC
